:100000000C9436000C945E000C945E000C944E022E
:100010000C944E020C944E020C945E000C945E0004
:100020000C945E000C945E000C945E000C945E00D8
:100030000C945E000C945E000C945E000C945E00C8
:100040000C94AC010C945E000C941C020C94F60110
:100050000C945E000C945E000C945E000C945E00A8
:100060000C945E000C945E005C02580211241FBECA
:10007000CFEFD8E0DEBFCDBF11E0A0E0B1E0E6EC0D
:10008000F7E002C005900D92A032B107D9F721E048
:10009000A0E2B1E001C01D92A63DB207E1F710E079
:1000A000C5E3D0E004C02197FE010E94CB03C43316
:1000B000D107C9F70E949B020C94D6030C94000050
:1000C000CF92DF92EF92FF920F931F93CF93DF9324
:1000D0006C017A018B01C0E0D0E0CE15DF0589F01C
:1000E000D8016D918D01D601ED91FC910190F081C7
:1000F000E02DC6010995892B11F47E0102C02196DD
:10010000ECCFC701DF91CF911F910F91FF90EF903E
:10011000DF90CF900895FC01538D448D252F30E062
:10012000842F90E0821B930B541710F0CF96089504
:1001300001970895FC01918D828D981761F0828D51
:10014000DF01A80FB11D5D968C91928D9F5F9F730B
:10015000928F90E008958FEF9FEF0895FC01918DAD
:10016000828D981731F0828DE80FF11D858D90E01A
:1001700008958FEF9FEF0895FC01918D228D892FB7
:1001800090E0805C9F4F821B91098F73992708959F
:10019000FC01848DDF01A80FB11DA35ABF4F2C9124
:1001A000848D90E001968F739927848FA689B789F3
:1001B0002C93A089B1898C9180648C93938D848DCC
:1001C000981306C00288F389E02D80818F7D80839B
:1001D0000895EF92FF920F931F93CF93DF93EC015B
:1001E00081E0888F9B8D8C8D981305C0E889F989F3
:1001F000808185FD24C0F62E0B8D10E00F5F1F4F10
:100200000F731127E02E8C8DE8120CC00FB607FC7F
:10021000FACFE889F989808185FFF5CFCE010E9468
:10022000C800F1CF8B8DFE01E80FF11DE35AFF4F9F
:10023000F0820B8FEA89FB898081806207C0EE899A
:10024000FF896083E889F98980818064808381E007
:1002500090E0DF91CF911F910F91FF90EF90089563
:10026000CF93DF93EC01888D8823C9F0EA89FB895D
:10027000808185FD05C0A889B9898C9186FD0FC054
:100280000FB607FCF5CF808185FFF2CFA889B98929
:100290008C9185FFEDCFCE010E94C800E7CFDF91A2
:1002A000CF910895089580E090E008950E94D103D1
:1002B000CF93DF93EC018CE191E099838883EC810B
:1002C000FD813097E1F180819181DF012D913C9199
:1002D00011972817390739F01D960D90BC91A02D64
:1002E0001097A1F7EECF1D962D913C911E972115E9
:1002F000310589F0AE17BF0721F43D832C831BC065
:10030000FC01858596850097B1F08A179B07C1F798
:100310003687258710C0AE17BF0721F41D821C82C7
:100320000AC0FC0185859685009729F08A179B07EE
:10033000C1F716861586CD010E943303C0CFDF9129
:10034000CF910895CF93DF93EC010E945801CE0125
:10035000DF91CF910C9433031F920F920FB60F923F
:1003600011242F933F938F939F93AF93BF938091CB
:10037000270190912801A0912901B0912A01309183
:10038000260123E0230F2D3720F40196A11DB11D76
:1003900005C026E8230F0296A11DB11D209326015A
:1003A0008093270190932801A0932901B0932A01FB
:1003B0008091220190912301A0912401B091250107
:1003C0000196A11DB11D8093220190932301A0935A
:1003D0002401B0932501BF91AF919F918F913F91DF
:1003E0002F910F900FBE0F901F9018951F920F9294
:1003F0000FB60F9211242F933F934F935F936F93F8
:100400007F938F939F93AF93BF93EF93FF938BE271
:1004100091E00E94C800FF91EF91BF91AF919F9131
:100420008F917F916F915F914F913F912F910F909D
:100430000FBE0F901F9018951F920F920FB60F923C
:1004400011242F938F939F93EF93FF93E0913B01A0
:10045000F0913C018081E0914101F091420182FDE7
:1004600012C09081809144018F5F8F73209145016C
:10047000821751F0E0914401F0E0E55DFE4F958F69
:100480008093440101C08081FF91EF919F918F91F2
:100490002F910F900FBE0F901F9018951F920F92E3
:1004A0000FB60F9211240F900FBE0F901F9018954A
:1004B00088EC91E00C945801EBE2F1E01382128297
:1004C00088EE93E0A0E0B0E084839583A683B783B1
:1004D0008AE091E09183808385EC90E09587848722
:1004E00084EC90E09787868780EC90E0918B808BFE
:1004F00081EC90E0938B828B82EC90E0958B848BE7
:1005000086EC90E0978B868B118E128E138E148E54
:10051000E0EDF1E010821182EEECF1E01082118248
:10052000E8ECF1E08CE191E0918380831582148204
:1005300013821282089580E090E00895CF93DF93B4
:100540008230910510F482E090E0E091D401F091C6
:10055000D50120E030E0C0E0D0E0309711F14081DB
:10056000518148175907C0F04817590761F4828133
:100570009381209719F09B838A832BC09093D50198
:100580008093D40126C02115310519F04217530775
:1005900018F49A01BE01DF01EF010280F381E02D22
:1005A000DCCF2115310509F1281B390B2430310529
:1005B00090F412968D919C9113976115710521F01D
:1005C000FB019383828304C09093D5018093D4016F
:1005D000FD01329644C0FD01E20FF31F8193919318
:1005E000225031092D933C933AC02091D201309191
:1005F000D301232B41F42091020130910301309368
:10060000D3012093D20120910001309101012115E5
:10061000310541F42DB73EB74091040150910501D9
:10062000241B350BE091D201F091D301E217F307BF
:10063000A0F42E1B3F0B2817390778F0AC014E5F52
:100640005F4F2417350748F04E0F5F1F5093D301BB
:100650004093D2018193919302C0E0E0F0E0CF019A
:10066000DF91CF9108950F931F93CF93DF9300975E
:1006700009F48CC0FC013297138212820091D401DC
:100680001091D5010115110581F420813181820F6E
:10069000931F2091D2013091D3012817390779F5A2
:1006A000F093D301E093D20171C0D80140E050E053
:1006B000AE17BF0750F412962D913C911397AD01E0
:1006C0002115310509F1D901F3CF9D01DA013383F9
:1006D000228360817181860F971F8217930769F4C7
:1006E000EC0128813981260F371F2E5F3F4F318360
:1006F00020838A819B8193838283452B29F4F09305
:10070000D501E093D40142C01396FC93EE93129767
:10071000ED01499159919E01240F351FE217F3070E
:1007200071F480819181840F951F029611969C939C
:100730008E938281938113969C938E931297E0E01F
:10074000F0E0D80112968D919C911397009719F0C3
:10075000F8018C01F6CF8D919C9198012E5F3F4F4F
:10076000820F931F2091D2013091D30128173907AE
:1007700069F4309729F41092D5011092D40102C087
:10078000138212821093D3010093D201DF91CF9193
:100790001F910F910895EE0FFF1F0590F491E02D2A
:1007A000099481E090E0F8940C94D60310E0C5E33E
:1007B000D0E004C0FE010E94CB032196C633D107CE
:0607C000C9F7F894FFCF19
:1007C6000000D601800000000000E90060008B00F8
:1007D6003001BC009A00AE00000000005801A201E2
:00000001FF
