:100000000C9436000C945E000C945E000C9451022B
:100010000C9451020C9451020C945E000C945E00FE
:100020000C945E000C945E000C945E000C945E00D8
:100030000C945E000C945E000C945E000C945E00C8
:100040000C94AF010C945E000C941F020C94F90107
:100050000C945E000C945E000C945E000C945E00A8
:100060000C945E000C945E005F025B0211241FBEC4
:10007000CFEFD8E0DEBFCDBF11E0A0E0B1E0ECED06
:10008000F7E002C005900D92A832B107D9F721E040
:10009000A8E2B1E001C01D92A23EB207E1F710E074
:1000A000C5E3D0E004C02197FE010E94D603C4330B
:1000B000D107C9F70E94A6020C94E1030C9400003A
:1000C0000895CF92DF92EF92FF920F931F93CF93F9
:1000D000DF936C017A018B01C0E0D0E0CE15DF0523
:1000E00089F0D8016D918D01D601ED91FC910190BF
:1000F000F081E02DC6010995892B11F47E0102C023
:100100002196ECCFC701DF91CF911F910F91FF9006
:10011000EF90DF90CF900895FC01538D448D252FF3
:1001200030E0842F90E0821B930B541710F0CF9691
:10013000089501970895FC01918D828D981761F0C3
:10014000828DDF01A80FB11D5D968C91928D9F5F0E
:100150009F73928F90E008958FEF9FEF0895FC01B9
:10016000918D828D981731F0828DE80FF11D858D6C
:1001700090E008958FEF9FEF0895FC01918D228DFF
:10018000892F90E0805C9F4F821B91098F73992784
:100190000895FC01848DDF01A80FB11DA35ABF4F44
:1001A0002C91848D90E001968F739927848FA68976
:1001B000B7892C93A089B1898C9180648C93938D9D
:1001C000848D981306C00288F389E02D80818F7D8D
:1001D00080830895EF92FF920F931F93CF93DF9345
:1001E000EC0181E0888F9B8D8C8D981305C0E88988
:1001F000F989808185FD24C0F62E0B8D10E00F5FFC
:100200001F4F0F731127E02E8C8DE8120CC00FB614
:1002100007FCFACFE889F989808185FFF5CFCE0107
:100220000E94C900F1CF8B8DFE01E80FF11DE35A4A
:10023000FF4FF0820B8FEA89FB898081806207C0C3
:10024000EE89FF896083E889F989808180648083F1
:1002500081E090E0DF91CF911F910F91FF90EF909F
:100260000895CF93DF93EC01888D8823C9F0EA8944
:10027000FB89808185FD05C0A889B9898C9186FD9F
:100280000FC00FB607FCF5CF808185FFF2CFA8899C
:10029000B9898C9185FFEDCFCE010E94C900E7CFCF
:1002A000DF91CF910895089580E090E008950E9435
:1002B000DC030C943E03CF93DF93EC018CE191E0DF
:1002C00099838883EC81FD813097E1F18081918170
:1002D000DF012D913C9111972817390739F01D96B0
:1002E0000D90BC91A02D1097A1F7EECF1D962D91EA
:1002F0003C911E972115310589F0AE17BF0721F4F7
:100300003D832C831BC0FC01858596850097B1F049
:100310008A179B07C1F73687258710C0AE17BF071E
:1003200021F41D821C820AC0FC01858596850097F8
:1003300029F08A179B07C1F716861586CD010E9402
:100340003E03C0CFDF91CF910895CF93DF93EC01AF
:100350000E945B01CE01DF91CF910C943E031F926E
:100360000F920FB60F9211242F933F938F939F9369
:10037000AF93BF9380912F0190913001A0913101F3
:10038000B091320130912E0123E0230F2D3720F45C
:100390000196A11DB11D05C026E8230F0296A11DDF
:1003A000B11D20932E0180932F0190933001A093D3
:1003B0003101B093320180912A0190912B01A091DB
:1003C0002C01B0912D010196A11DB11D80932A0130
:1003D00090932B01A0932C01B0932D01BF91AF916D
:1003E0009F918F913F912F910F900FBE0F901F9073
:1003F00018951F920F920FB60F9211242F933F93CF
:100400004F935F936F937F938F939F93AF93BF931C
:10041000EF93FF9383E391E00E94C900FF91EF9176
:10042000BF91AF919F918F917F916F915F914F910C
:100430003F912F910F900FBE0F901F9018951F9214
:100440000F920FB60F9211242F938F939F93EF93D8
:10045000FF93E0914301F09144018081E0914901D3
:10046000F0914A0182FD12C0908180914C018F5F12
:100470008F7320914D01821751F0E0914C01F0E013
:10048000ED5CFE4F958F80934C0101C08081FF9100
:10049000EF919F918F912F910F900FBE0F901F9012
:1004A00018951F920F920FB60F9211240F900FBE46
:1004B0000F901F90189580ED91E00C945B01E3E3A1
:1004C000F1E01382128288EE93E0A0E0B0E0848332
:1004D0009583A683B7838AE091E09183808385EC3E
:1004E00090E09587848784EC90E09787868780ECFE
:1004F00090E0918B808B81EC90E0938B828B82ECEF
:1005000090E0958B848B86EC90E0978B868B118E98
:10051000128E138E148EECEDF1E010821182EAED52
:10052000F1E010821182E6EDF1E084E291E0918346
:10053000808313821282E0EDF1E08CE191E09183FF
:1005400080831582148213821282089580E090E0E5
:100550000895CF93DF938230910510F482E090E00C
:10056000E091E001F091E10120E030E0C0E0D0E076
:10057000309711F14081518148175907C0F0481751
:10058000590761F482819381209719F09B838A83B4
:100590002BC09093E1018093E00126C02115310525
:1005A00019F04217530718F49A01BE01DF01EF0159
:1005B0000280F381E02DDCCF2115310509F1281BE4
:1005C000390B2430310590F412968D919C9113973C
:1005D0006115710521F0FB019383828304C0909320
:1005E000E1018093E001FD01329644C0FD01E20F7C
:1005F000F31F81939193225031092D933C933AC07C
:100600002091DE013091DF01232B41F42091020182
:10061000309103013093DF012093DE01209100012E
:10062000309101012115310541F42DB73EB74091BC
:10063000040150910501241B350BE091DE01F0917E
:10064000DF01E217F307A0F42E1B3F0B2817390731
:1006500078F0AC014E5F5F4F2417350748F04E0F1E
:100660005F1F5093DF014093DE018193919302C09D
:10067000E0E0F0E0CF01DF91CF9108950F931F9359
:10068000CF93DF93009709F48CC0FC01329713825B
:1006900012820091E0011091E1010115110581F430
:1006A00020813181820F931F2091DE013091DF0183
:1006B0002817390779F5F093DF01E093DE0171C067
:1006C000D80140E050E0AE17BF0750F412962D91CC
:1006D0003C911397AD012115310509F1D901F3CFF3
:1006E0009D01DA013383228360817181860F971F18
:1006F0008217930769F4EC0128813981260F371F8F
:100700002E5F3F4F318320838A819B819383828335
:10071000452B29F4F093E101E093E00142C01396E8
:10072000FC93EE931297ED01499159919E01240F8C
:10073000351FE217F30771F480819181840F951FB3
:10074000029611969C938E938281938113969C932B
:100750008E931297E0E0F0E0D80112968D919C9173
:100760001397009719F0F8018C01F6CF8D919C91A9
:1007700098012E5F3F4F820F931F2091DE01309131
:10078000DF012817390769F4309729F41092E10145
:100790001092E00102C0138212821093DF010093D5
:1007A000DE01DF91CF911F910F910895EE0FFF1F92
:1007B0000590F491E02D099481E090E0F8940C9478
:1007C000E10310E0C5E3D0E004C0FE010E94D603BF
:0C07D0002196C633D107C9F7F894FFCF7B
:1007DC000000E201800000000000EA0061008C00D3
:1007EC003101BD009B00AF00000000005B01A501C2
:0807FC0000000000600059013B
:00000001FF
