:100000000C9435000C945D000C945D000C94F90187
:100010000C94F9010C94F9010C945D000C945D00B2
:100020000C945D000C945D000C945D000C945D00DC
:100030000C945D000C945D000C945D000C945D00CC
:100040000C9457010C945D000C94C7010C94A10111
:100050000C945D000C945D000C945D000C945D00AC
:100060000C945D000C945D00030211241FBECFEFC1
:10007000D8E0DEBFCDBF11E0A0E0B1E0E0E9F4E000
:1000800002C005900D92A231B107D9F721E0A2E19B
:10009000B1E001C01D92AE3BB207E1F710E0C5E34D
:1000A000D0E004C02197FE010E943B02C433D10777
:1000B000C9F70E9438020C9446020C940000CF92BB
:1000C000DF92EF92FF920F931F93CF93DF936C0118
:1000D0007A018B01C0E0D0E0CE15DF0589F0D801B0
:1000E0006D918D01D601ED91FC910190F081E02D93
:1000F000C6010995892B11F47E0102C02196ECCF2F
:10010000C701DF91CF911F910F91FF90EF90DF908A
:10011000CF900895FC01538D448D252F30E0842F1E
:1001200090E0821B930B541710F0CF96089501971F
:100130000895FC01918D828D981761F0828DDF0109
:10014000A80FB11D5D968C91928D9F5F9F73928FCA
:1001500090E008958FEF9FEF0895FC01918D828DBF
:10016000981731F0828DE80FF11D858D90E008958C
:100170008FEF9FEF0895FC01918D228D892F90E0E4
:10018000805C9F4F821B91098F7399270895FC0112
:10019000848DDF01A80FB11DA35ABF4F2C91848D10
:1001A00090E001968F739927848FA689B7892C9345
:1001B000A089B1898C9180648C93938D848D9813E0
:1001C00006C00288F389E02D80818F7D80830895A9
:1001D000EF92FF920F931F93CF93DF93EC0181E097
:1001E000888F9B8D8C8D981305C0E889F989808153
:1001F00085FD24C0F62E0B8D10E00F5F1F4F0F738F
:100200001127E02E8C8DE8120CC00FB607FCFACF38
:10021000E889F989808185FFF5CFCE010E94C7006A
:10022000F1CF8B8DFE01E80FF11DE35AFF4FF082F5
:100230000B8FEA89FB898081806207C0EE89FF8984
:100240006083E889F98980818064808381E090E01F
:10025000DF91CF911F910F91FF90EF900895CF9371
:10026000DF93EC01888D8823C9F0EA89FB898081BE
:1002700085FD05C0A889B9898C9186FD0FC00FB690
:1002800007FCF5CF808185FFF2CFA889B9898C91D1
:1002900085FFEDCFCE010E94C700E7CFDF91CF9160
:1002A0000895089580E090E008950E9441021F9211
:1002B0000F920FB60F9211242F933F938F939F931A
:1002C000AF93BF938091190190911A01A0911B01E6
:1002D000B0911C013091180123E0230F2D3720F439
:1002E0000196A11DB11D05C026E8230F0296A11D90
:1002F000B11D209318018093190190931A01A093C6
:100300001B01B0931C018091140190911501A091E3
:100310001601B09117010196A11DB11D8093140122
:1003200090931501A0931601B0931701BF91AF915F
:100330009F918F913F912F910F900FBE0F901F9023
:1003400018951F920F920FB60F9211242F933F937F
:100350004F935F936F937F938F939F93AF93BF93CD
:10036000EF93FF938DE191E00E94C700FF91EF9121
:10037000BF91AF919F918F917F916F915F914F91BD
:100380003F912F910F900FBE0F901F9018951F92C5
:100390000F920FB60F9211242F938F939F93EF9389
:1003A000FF93E0912D01F0912E018081E0913301C6
:1003B000F091340182FD12C09081809136018F5FEF
:1003C0008F7320913701821751F0E0913601F0E0F0
:1003D000E35EFE4F958F8093360101C08081FF91CF
:1003E000EF919F918F912F910F900FBE0F901F90C3
:1003F00018951F920F920FB60F9211240F900FBEF7
:100400000F901F901895EDE1F1E01382128288EEB3
:1004100093E0A0E0B0E084839583A683B78384E073
:1004200091E09183808385EC90E09587848784ECCC
:1004300090E09787868780EC90E0918B808B81ECB1
:1004400090E0938B828B82EC90E0958B848B86EC92
:1004500090E0978B868B118E128E138E148EECEBA0
:10046000F1E010821182EAEBF1E01082118208952E
:1004700080E090E00895EE0FFF1F0590F491E02DCD
:10048000099481E090E0F8940C944602F894FFCF30
:1004900000000000E8005F008A002F01BB00990007
:0204A000AD00AD
:00000001FF
