:100000000C9435000C945D000C945D000C945D0024
:100010000C945D000C945D000C945D000C945D00EC
:100020000C945D000C945D000C945D000C945D00DC
:100030000C945D000C945D000C945D000C945D00CC
:100040000C945D000C945D000C94DF010C94B901DC
:100050000C945D000C945D000C945D000C945D00AC
:100060000C9411020C945D003B0311241FBECFEFD2
:10007000D8E0DEBFCDBF11E0A0E0B1E0E8E0F7E0FE
:1000800002C005900D92A432B107D9F722E0A4E294
:10009000B1E001C01D92A833B207E1F710E0C5E35B
:1000A000D0E004C02197FE010E947703C433D1073A
:1000B000C9F70E9474030C9482030C940000CF9241
:1000C000DF92EF92FF920F931F93CF93DF936C0118
:1000D0007A018B01C0E0D0E0CE15DF0581F0D801B8
:1000E0006D918D01D601ED91FC910190F081E02D93
:1000F000C6010995892B11F02196EECF7E01C7012B
:10010000DF91CF911F910F91FF90EF90DF90CF90F3
:100110000895FC01538D448D252F30E0842F90E00D
:10012000821B930B541710F0CF96089501970895F2
:10013000FC01918D828D981761F0828DDF01A80FEF
:10014000B11D5D968C91928D9F5F9F73928F90E011
:1001500008958FEF9FEF0895FC01918D828D981780
:1001600031F0828DE80FF11D858D90E008958FEFBD
:100170009FEF0895FC01918D228D892F90E0805C86
:100180009F4F821B91098F7399270895FC01848DDD
:10019000DF01A80FB11DA35ABF4F2C91848D90E0B1
:1001A00001968F739927848FA689B7892C93A0898C
:1001B000B1898C91837080648C93938D848D981316
:1001C00006C00288F389E02D80818F7D80830895A9
:1001D000EF92FF920F931F93CF93DF93EC0181E097
:1001E000888F9B8D8C8D981305C0E889F989808153
:1001F00085FD26C0F62E0B8D10E00F5F1F4F0F738D
:100200001127E02E8C8DE8120CC00FB607FCFACF38
:10021000E889F989808185FFF5CFCE010E94C6006B
:10022000F1CF8B8DFE01E80FF11DE35AFF4FF082F5
:100230009FB7F8940B8FEA89FB89808180620AC09E
:100240009FB7F894EE89FF896083E889F9898081F6
:100250008370806480839FBF81E090E0DF91CF91C5
:100260001F910F91FF90EF900895CF93DF93EC01D2
:10027000888D8823C9F0EA89FB89808185FD05C0C6
:10028000A889B9898C9186FD0FC00FB607FCF5CF00
:10029000808185FFF2CFA889B9898C9185FFEDCF48
:1002A000CE010E94C600E7CFDF91CF910895089557
:1002B0008FEF9FEF08958FEF9FEF089580918E014C
:1002C00090E09195819591090895089580E090E0DE
:1002D000089585ED8093BC008091BC0084FDFCCF27
:1002E00010926801089540914401262F30E0240FB8
:1002F000311D21323105DCF4209168012430C9F42C
:10030000FC0180E090E0861758F43091440121917F
:10031000DC01AC5DBE4FA30FB11D2C930196F3CF52
:1003200080914401680F6093440180E0089581E06A
:10033000089582E00895CF93DF93CB01EA01642F03
:100340000E947301CE01DF91CF910895CF93DF9387
:100350001F92CDB7DEB7698361E0CE0101960E949E
:10036000730181E090E00F90DF91CF9108950E949A
:100370007D031F920F920FB60F9211242F933F937C
:100380004F935F936F937F938F939F93AF93BF939D
:10039000EF93FF938FE891E00E94C600FF91EF91E9
:1003A000BF91AF919F918F917F916F915F914F918D
:1003B0003F912F910F900FBE0F901F9018951F9295
:1003C0000F920FB60F9211242F938F939F93EF9359
:1003D000FF93E0919F01F091A0018081E091A50140
:1003E000F091A60182FD12C090818091A8018F5FDB
:1003F0008F732091A901821751F0E091A801F0E0DC
:10040000E157FE4F958F8093A80101C08081FF9135
:10041000EF919F918F912F910F900FBE0F901F9092
:1004200018951F920F920FB60F9211242F933F939E
:100430004F935F936F937F938F939F93AF93BF93EC
:10044000EF93FF938091B900887F803609F49CC0B8
:1004500068F5883209F45BC090F4803109F454C027
:1004600038F4882309F4F2C0883009F44DC0F2C092
:10047000883109F44CC0803209F45DC0EBC080348F
:1004800009F468C048F4803309F455C0883309F092
:10049000E1C080936701D4C0803509F44FC088352E
:1004A00009F45DC0883409F0D5C0D2C0883909F498
:1004B000C3C0A8F4883709F467C038F4883609F453
:1004C00063C0803709F460C0C5C0883809F4B4C07F
:1004D000803909F45FC0803809F0BCC05BC0803B44
:1004E00009F484C038F4803A09F466C0883A09F403
:1004F0007DC0B0C0803C09F4A3C0883C09F4A0C012
:10050000883B09F486C0A6C080918D0110C09091EF
:100510008C0180918B01981770F5E0918C0181E03E
:100520008E0F80938C01F0E0E559FE4F808180931F
:10053000BB0085EC82C0809367018AC0E0918C018A
:1005400081E08E0F80938C018091BB00F0E0E55933
:10055000FE4F808390918C0180918B016AC0E09165
:100560008C0181E08E0F80938C018091BB00F0E0C4
:10057000E559FE4F808380916A01811169C081E055
:100580008093690184EA5DC083E0809368011092E2
:100590006601CFCF80916601803208F04DC0E091B6
:1005A000660181E08E0F809366018091BB00F0E0D0
:1005B000EA5BFE4F8083BDCF85EC8093BC00109238
:1005C000680180916601803230F4E0916601F0E0CC
:1005D000EA5BFE4F10826091660170E086E491E074
:1005E000E0E0F0E009951092660134C084E0809369
:1005F00068011092450110924401E0E0F0E0099595
:1006000080914401811105C081E0809344011092E2
:100610002401E091450181E08E0F80934501F0E0D7
:10062000EC5DFE4F80818093BB00909145018091ED
:100630004401981708F47DCF85E88093BC000AC078
:1006400085EC8093BC001092680104C01092670191
:100650000E946901FF91EF91BF91AF919F918F919E
:100660007F916F915F914F913F912F910F900FBEAE
:100670000F901F901895EFE8F1E01382128288EE38
:1006800093E0A0E0B0E084839583A683B78324E061
:1006900031E03183208325EC30E03587248724EC5A
:1006A00030E03787268720EC30E0318B208B21EC3F
:1006B00030E0338B228B22EC30E0358B248B26EC20
:1006C00030E0378B268B118E128E138E148EECE257
:1006D000F2E01382128284839583A683B78386E136
:1006E00091E091838083089580E090E00895EE0F7B
:1006F000FF1F0590F491E02D099481E090E0F894BB
:080700000C948203F894FFCF72
:1007080000000000E8005F0089003501BA00980089
:10071800AC0000000000A6019B01660157015E01C4
:040728005B01580118
:00000001FF
