:100000000C9435000C945D000C945D000C945D0024
:100010000C945D000C945D000C945D000C945D00EC
:100020000C945D000C945D000C945D000C945D00DC
:100030000C945D000C945D000C945D000C945D00CC
:100040000C945D000C945D000C947D010C945701A0
:100050000C945D000C945D000C945D000C945D00AC
:100060000C945D000C945D00B20111241FBECFEF13
:10007000D8E0DEBFCDBF11E0A0E0B1E0E8EDF3E0F5
:1000800002C005900D92A231B107D9F721E0A2E19B
:10009000B1E001C01D92AF3AB207E1F710E0C5E34D
:1000A000D0E004C02197FE010E94DF01C433D107D4
:1000B000C9F70E94AF010C94EA010C940000CF92A2
:1000C000DF92EF92FF920F931F93CF93DF936C0118
:1000D0007A018B01C0E0D0E0CE15DF0589F0D801B0
:1000E0006D918D01D601ED91FC910190F081E02D93
:1000F000C6010995892B11F47E0102C02196ECCF2F
:10010000C701DF91CF911F910F91FF90EF90DF908A
:10011000CF900895089580E090E00895FC01538DFC
:10012000448D252F30E0842F90E0821B930B5417D1
:1001300010F0CF96089501970895FC01918D828D5E
:10014000981761F0828DDF01A80FB11D5D968C912B
:10015000928D9F5F9F73928F90E008958FEF9FEF36
:100160000895FC01918D828D981731F0828DE80FF2
:10017000F11D858D90E008958FEF9FEF0895FC01AC
:10018000918D228D892F90E0805C9F4F821B910979
:100190008F7399270895FC01848DDF01A80FB11D8D
:1001A000A35ABF4F2C91848D90E001968F739927AD
:1001B000848FA689B7892C93A089B1898C9180649A
:1001C0008C93938D848D981306C00288F389E02D5B
:1001D00080818F7D80830895EF92FF920F931F930C
:1001E000CF93DF93EC0181E0888F9B8D8C8D9813EA
:1001F00005C0E889F989808185FD24C0F62E0B8D24
:1002000010E00F5F1F4F0F731127E02E8C8DE81247
:100210000CC00FB607FCFACFE889F989808185FF09
:10022000F5CFCE010E94CB00F1CF8B8DFE01E80F00
:10023000F11DE35AFF4FF0820B8FEA89FB89808121
:10024000806207C0EE89FF896083E889F98980812F
:100250008064808381E090E0DF91CF911F910F91C6
:10026000FF90EF900895CF93DF93EC01888D882362
:10027000C9F0EA89FB89808185FD05C0A889B98913
:100280008C9186FD0FC00FB607FCF5CF808185FFEE
:10029000F2CFA889B9898C9185FFEDCFCE010E945C
:1002A000CB00E7CFDF91CF9108950E94E5011F9227
:1002B0000F920FB60F9211242F933F934F935F939A
:1002C0006F937F938F939F93AF93BF93EF93FF931E
:1002D00082E191E00E94CB00FF91EF91BF91AF913D
:1002E0009F918F917F916F915F914F913F912F914E
:1002F0000F900FBE0F901F9018951F920F920FB680
:100300000F9211242F938F939F93EF93FF93E0917C
:100310002201F09123018081E0912801F0912901CF
:1003200082FD12C0908180912B018F5F8F7320918D
:100330002C01821751F0E0912B01F0E0EE5EFE4FB0
:10034000958F80932B0101C08081FF91EF919F9148
:100350008F912F910F900FBE0F901F90189580E0F6
:1003600090E00895E2E1F1E01382128288EE93E0DA
:10037000A0E0B0E084839583A683B78384E091E016
:100380009183808385EC90E09587848784EC90E06E
:100390009787868780EC90E0918B808B81EC90E052
:1003A000938B828B82EC90E0958B848B86EC90E033
:1003B000978B868B118E128E138E148E0895EE0FEE
:1003C000FF1F0590F491E02D099481E090E0F894EE
:0803D0000C94EA01F894FFCF40
:1003D80000000000EC005F008E003301BF009D00AC
:0203E800B10062
:00000001FF
